{
  "address": "0x87e4187AbFDc1327A4ACd5339dDf2F1bA76de457",
  "abi": [
    {
      "inputs": [
        {
          "internalType": "address payable",
          "name": "_recipent",
          "type": "address"
        },
        {
          "internalType": "uint256",
          "name": "_expiration",
          "type": "uint256"
        }
      ],
      "stateMutability": "payable",
      "type": "constructor"
    },
    {
      "anonymous": false,
      "inputs": [
        {
          "indexed": false,
          "internalType": "uint256",
          "name": "expire",
          "type": "uint256"
        }
      ],
      "name": "Deployed",
      "type": "event"
    },
    {
      "anonymous": false,
      "inputs": [
        {
          "indexed": false,
          "internalType": "uint256",
          "name": "Time",
          "type": "uint256"
        }
      ],
      "name": "TimeExtended",
      "type": "event"
    },
    {
      "inputs": [
        {
          "internalType": "uint256",
          "name": "amount",
          "type": "uint256"
        },
        {
          "internalType": "bytes",
          "name": "sign",
          "type": "bytes"
        }
      ],
      "name": "close",
      "outputs": [],
      "stateMutability": "nonpayable",
      "type": "function"
    },
    {
      "inputs": [],
      "name": "expiration",
      "outputs": [
        {
          "internalType": "uint256",
          "name": "",
          "type": "uint256"
        }
      ],
      "stateMutability": "view",
      "type": "function"
    },
    {
      "inputs": [
        {
          "internalType": "uint256",
          "name": "newTime",
          "type": "uint256"
        }
      ],
      "name": "extendTimeout",
      "outputs": [],
      "stateMutability": "nonpayable",
      "type": "function"
    },
    {
      "inputs": [],
      "name": "getBalanceNow",
      "outputs": [
        {
          "internalType": "uint256",
          "name": "",
          "type": "uint256"
        }
      ],
      "stateMutability": "view",
      "type": "function"
    },
    {
      "inputs": [],
      "name": "getExpiration",
      "outputs": [
        {
          "internalType": "uint256",
          "name": "",
          "type": "uint256"
        }
      ],
      "stateMutability": "view",
      "type": "function"
    },
    {
      "inputs": [
        {
          "internalType": "uint256",
          "name": "amount",
          "type": "uint256"
        }
      ],
      "name": "getMessageHash",
      "outputs": [
        {
          "internalType": "bytes32",
          "name": "",
          "type": "bytes32"
        }
      ],
      "stateMutability": "view",
      "type": "function"
    },
    {
      "inputs": [],
      "name": "getTimeStamp",
      "outputs": [
        {
          "internalType": "uint256",
          "name": "",
          "type": "uint256"
        }
      ],
      "stateMutability": "view",
      "type": "function"
    },
    {
      "inputs": [
        {
          "internalType": "uint256",
          "name": "amount",
          "type": "uint256"
        },
        {
          "internalType": "bytes",
          "name": "sign",
          "type": "bytes"
        }
      ],
      "name": "isValid",
      "outputs": [
        {
          "internalType": "bool",
          "name": "",
          "type": "bool"
        }
      ],
      "stateMutability": "view",
      "type": "function"
    },
    {
      "inputs": [
        {
          "internalType": "bytes32",
          "name": "message",
          "type": "bytes32"
        }
      ],
      "name": "prefixed",
      "outputs": [
        {
          "internalType": "bytes32",
          "name": "",
          "type": "bytes32"
        }
      ],
      "stateMutability": "pure",
      "type": "function"
    },
    {
      "inputs": [],
      "name": "recipent",
      "outputs": [
        {
          "internalType": "address payable",
          "name": "",
          "type": "address"
        }
      ],
      "stateMutability": "view",
      "type": "function"
    },
    {
      "inputs": [
        {
          "internalType": "bytes32",
          "name": "message",
          "type": "bytes32"
        },
        {
          "internalType": "bytes",
          "name": "sign",
          "type": "bytes"
        }
      ],
      "name": "recover",
      "outputs": [
        {
          "internalType": "address",
          "name": "",
          "type": "address"
        }
      ],
      "stateMutability": "pure",
      "type": "function"
    },
    {
      "inputs": [],
      "name": "sender",
      "outputs": [
        {
          "internalType": "address payable",
          "name": "",
          "type": "address"
        }
      ],
      "stateMutability": "view",
      "type": "function"
    },
    {
      "inputs": [
        {
          "internalType": "bytes",
          "name": "sing",
          "type": "bytes"
        }
      ],
      "name": "splitSignautre",
      "outputs": [
        {
          "internalType": "bytes32",
          "name": "r",
          "type": "bytes32"
        },
        {
          "internalType": "bytes32",
          "name": "s",
          "type": "bytes32"
        },
        {
          "internalType": "uint8",
          "name": "v",
          "type": "uint8"
        }
      ],
      "stateMutability": "pure",
      "type": "function"
    },
    {
      "inputs": [],
      "name": "timeOut",
      "outputs": [],
      "stateMutability": "nonpayable",
      "type": "function"
    }
  ],
  "transactionHash": "0x04c69ae9d68d9bff4c157c499dc6396f9e1f1e573b9b377c90b5697c92bee813",
  "args": [
    "0x87eA22A0D0c788C2f223d3eAC004D5568672A341",
    1661941390
  ],
  "numDeployments": 3,
  "solcInputHash": "b1896b683c1c51139692f1e4a98795ff",
  "bytecode": "0x6080604052604051620013fe380380620013fe833981810160405281019062000029919062000122565b336000806101000a81548173ffffffffffffffffffffffffffffffffffffffff021916908373ffffffffffffffffffffffffffffffffffffffff16021790555081600160006101000a81548173ffffffffffffffffffffffffffffffffffffffff021916908373ffffffffffffffffffffffffffffffffffffffff160217905550806002819055507fb94ae47ec9f4248692e2ecf9740b67ab493f3dcc8452bedc7d9cd911c28d1ca5600254604051620000e491906200017a565b60405180910390a150506200020e565b6000815190506200010581620001da565b92915050565b6000815190506200011c81620001f4565b92915050565b600080604083850312156200013c576200013b620001d5565b5b60006200014c85828601620000f4565b92505060206200015f858286016200010b565b9150509250929050565b6200017481620001cb565b82525050565b600060208201905062000191600083018462000169565b92915050565b6000620001a482620001ab565b9050919050565b600073ffffffffffffffffffffffffffffffffffffffff82169050919050565b6000819050919050565b600080fd5b620001e58162000197565b8114620001f157600080fd5b50565b620001ff81620001cb565b81146200020b57600080fd5b50565b6111e0806200021e6000396000f3fe608060405234801561001057600080fd5b50600436106100ea5760003560e01c8063640558511161008c578063ba86a10d11610066578063ba86a10d1461024f578063da235b221461027f578063e0a81b471461029d578063ffe50332146102bb576100ea565b806364055851146101cf57806367e404ce146102015780636f40eed81461021f576100ea565b8063415ffba7116100c8578063415ffba71461016d5780634665096d146101895780634d9c06d6146101a7578063614d85e1146101c5576100ea565b806319045a25146100ef5780631f2757131461011f578063286f82f91461014f575b600080fd5b6101096004803603810190610104919061090f565b6102d7565b6040516101169190610c23565b60405180910390f35b610139600480360381019061013491906108e2565b610346565b6040516101469190610c74565b60405180910390f35b610157610376565b6040516101649190610dcb565b60405180910390f35b610187600480360381019061018291906109e1565b61038b565b005b6101916104e4565b60405161019e9190610dcb565b60405180910390f35b6101af6104ea565b6040516101bc9190610dcb565b60405180910390f35b6101cd6104f2565b005b6101e960048036038101906101e4919061096b565b6105dd565b6040516101f893929190610c8f565b60405180910390f35b61020961060f565b6040516102169190610c3e565b60405180910390f35b610239600480360381019061023491906109e1565b610633565b6040516102469190610c59565b60405180910390f35b610269600480360381019061026491906109b4565b6106ca565b6040516102769190610c74565b60405180910390f35b6102876106fc565b6040516102949190610dcb565b60405180910390f35b6102a5610704565b6040516102b29190610c3e565b60405180910390f35b6102d560048036038101906102d091906109b4565b61072a565b005b6000806000806102e6856105dd565b9250925092506001868285856040516000815260200160405260405161030f9493929190610cc6565b6020604051602081039080840390855afa158015610331573d6000803e3d6000fd5b50505060206040510351935050505092915050565b6000816040516020016103599190610bd1565b604051602081830303815290604052805190602001209050919050565b6000600254426103869190610e58565b905090565b600160009054906101000a900473ffffffffffffffffffffffffffffffffffffffff1673ffffffffffffffffffffffffffffffffffffffff163373ffffffffffffffffffffffffffffffffffffffff161461041b576040517f08c379a000000000000000000000000000000000000000000000000000000000815260040161041290610d4b565b60405180910390fd5b6104258282610633565b610464576040517f08c379a000000000000000000000000000000000000000000000000000000000815260040161045b90610d2b565b60405180910390fd5b3373ffffffffffffffffffffffffffffffffffffffff166108fc839081150290604051600060405180830381858888f193505050501580156104aa573d6000803e3d6000fd5b5060008054906101000a900473ffffffffffffffffffffffffffffffffffffffff1673ffffffffffffffffffffffffffffffffffffffff16ff5b60025481565b600047905090565b60008054906101000a900473ffffffffffffffffffffffffffffffffffffffff1673ffffffffffffffffffffffffffffffffffffffff163373ffffffffffffffffffffffffffffffffffffffff1614610580576040517f08c379a000000000000000000000000000000000000000000000000000000000815260040161057790610d6b565b60405180910390fd5b60025442116105c4576040517f08c379a00000000000000000000000000000000000000000000000000000000081526004016105bb90610dab565b60405180910390fd5b3373ffffffffffffffffffffffffffffffffffffffff16ff5b600080600060418451146105f057600080fd5b6020840151925060408401519150606084015160001a90509193909250565b60008054906101000a900473ffffffffffffffffffffffffffffffffffffffff1681565b600080610667843060405160200161064c929190610bf7565b60405160208183030381529060405280519060200120610346565b905060008054906101000a900473ffffffffffffffffffffffffffffffffffffffff1673ffffffffffffffffffffffffffffffffffffffff166106aa82856102d7565b73ffffffffffffffffffffffffffffffffffffffff161491505092915050565b600081306040516020016106df929190610bf7565b604051602081830303815290604052805190602001209050919050565b600042905090565b600160009054906101000a900473ffffffffffffffffffffffffffffffffffffffff1681565b60008054906101000a900473ffffffffffffffffffffffffffffffffffffffff1673ffffffffffffffffffffffffffffffffffffffff163373ffffffffffffffffffffffffffffffffffffffff16146107b8576040517f08c379a00000000000000000000000000000000000000000000000000000000081526004016107af90610d8b565b60405180910390fd5b42600254106107fc576040517f08c379a00000000000000000000000000000000000000000000000000000000081526004016107f390610d0b565b60405180910390fd5b7f1ef63c439d75709dc038d391821be6b23647c12daa4880cd14e4976ba8857c1542826108299190610e58565b6040516108369190610dcb565b60405180910390a18060028190555050565b600061085b61085684610e0b565b610de6565b90508281526020810184848401111561087757610876611030565b5b610882848285610f55565b509392505050565b6000813590506108998161117c565b92915050565b600082601f8301126108b4576108b361102b565b5b81356108c4848260208601610848565b91505092915050565b6000813590506108dc81611193565b92915050565b6000602082840312156108f8576108f761103a565b5b60006109068482850161088a565b91505092915050565b600080604083850312156109265761092561103a565b5b60006109348582860161088a565b925050602083013567ffffffffffffffff81111561095557610954611035565b5b6109618582860161089f565b9150509250929050565b6000602082840312156109815761098061103a565b5b600082013567ffffffffffffffff81111561099f5761099e611035565b5b6109ab8482850161089f565b91505092915050565b6000602082840312156109ca576109c961103a565b5b60006109d8848285016108cd565b91505092915050565b600080604083850312156109f8576109f761103a565b5b6000610a06858286016108cd565b925050602083013567ffffffffffffffff811115610a2757610a26611035565b5b610a338582860161089f565b9150509250929050565b610a4681610ec0565b82525050565b610a5581610eae565b82525050565b610a6481610ed2565b82525050565b610a7381610ede565b82525050565b610a8a610a8582610ede565b610fa7565b82525050565b610aa1610a9c82610f1f565b610f95565b82525050565b6000610ab4601383610e3c565b9150610abf8261105d565b602082019050919050565b6000610ad7601c83610e4d565b9150610ae282611086565b601c82019050919050565b6000610afa600f83610e3c565b9150610b05826110af565b602082019050919050565b6000610b1d601083610e3c565b9150610b28826110d8565b602082019050919050565b6000610b40600e83610e3c565b9150610b4b82611101565b602082019050919050565b6000610b63600e83610e3c565b9150610b6e8261112a565b602082019050919050565b6000610b86600983610e3c565b9150610b9182611153565b602082019050919050565b610ba581610f08565b82525050565b610bbc610bb782610f08565b610fc3565b82525050565b610bcb81610f12565b82525050565b6000610bdc82610aca565b9150610be88284610a79565b60208201915081905092915050565b6000610c038285610bab565b602082019150610c138284610a90565b6014820191508190509392505050565b6000602082019050610c386000830184610a4c565b92915050565b6000602082019050610c536000830184610a3d565b92915050565b6000602082019050610c6e6000830184610a5b565b92915050565b6000602082019050610c896000830184610a6a565b92915050565b6000606082019050610ca46000830186610a6a565b610cb16020830185610a6a565b610cbe6040830184610bc2565b949350505050565b6000608082019050610cdb6000830187610a6a565b610ce86020830186610bc2565b610cf56040830185610a6a565b610d026060830184610a6a565b95945050505050565b60006020820190508181036000830152610d2481610aa7565b9050919050565b60006020820190508181036000830152610d4481610aed565b9050919050565b60006020820190508181036000830152610d6481610b10565b9050919050565b60006020820190508181036000830152610d8481610b33565b9050919050565b60006020820190508181036000830152610da481610b56565b9050919050565b60006020820190508181036000830152610dc481610b79565b9050919050565b6000602082019050610de06000830184610b9c565b92915050565b6000610df0610e01565b9050610dfc8282610f64565b919050565b6000604051905090565b600067ffffffffffffffff821115610e2657610e25610ffc565b5b610e2f8261103f565b9050602081019050919050565b600082825260208201905092915050565b600081905092915050565b6000610e6382610f08565b9150610e6e83610f08565b9250827fffffffffffffffffffffffffffffffffffffffffffffffffffffffffffffffff03821115610ea357610ea2610fcd565b5b828201905092915050565b6000610eb982610ee8565b9050919050565b6000610ecb82610ee8565b9050919050565b60008115159050919050565b6000819050919050565b600073ffffffffffffffffffffffffffffffffffffffff82169050919050565b6000819050919050565b600060ff82169050919050565b6000610f2a82610f31565b9050919050565b6000610f3c82610f43565b9050919050565b6000610f4e82610ee8565b9050919050565b82818337600083830152505050565b610f6d8261103f565b810181811067ffffffffffffffff82111715610f8c57610f8b610ffc565b5b80604052505050565b6000610fa082610fb1565b9050919050565b6000819050919050565b6000610fbc82611050565b9050919050565b6000819050919050565b7f4e487b7100000000000000000000000000000000000000000000000000000000600052601160045260246000fd5b7f4e487b7100000000000000000000000000000000000000000000000000000000600052604160045260246000fd5b600080fd5b600080fd5b600080fd5b600080fd5b6000601f19601f8301169050919050565b60008160601b9050919050565b7f796f752063616e6e6f7420696e63726561736500000000000000000000000000600082015250565b7f19457468657265756d205369676e6564204d6573736167653a0a333200000000600082015250565b7f57726f6e67205369676e61747572650000000000000000000000000000000000600082015250565b7f52657175697265205265636970656e7400000000000000000000000000000000600082015250565b7f526571756972652073656e646572000000000000000000000000000000000000600082015250565b7f526571756972652053656e646572000000000000000000000000000000000000600082015250565b7f426c6f636b54696d650000000000000000000000000000000000000000000000600082015250565b61118581610ede565b811461119057600080fd5b50565b61119c81610f08565b81146111a757600080fd5b5056fea2646970667358221220a850550e559078b55c9589b9dfdc1797ff2828e2dd2993f46216a91c6b665fbb64736f6c63430008070033",
  "devdoc": {
    "kind": "dev",
    "methods": {},
    "version": 1
  },
  "userdoc": {
    "kind": "user",
    "methods": {},
    "version": 1
  },
  "storageLayout": {
    "storage": [
      {
        "astId": 3,
        "contract": "contracts/PaymentChannel.sol:PaymentChannel",
        "label": "sender",
        "offset": 0,
        "slot": "0",
        "type": "t_address_payable"
      },
      {
        "astId": 5,
        "contract": "contracts/PaymentChannel.sol:PaymentChannel",
        "label": "recipent",
        "offset": 0,
        "slot": "1",
        "type": "t_address_payable"
      },
      {
        "astId": 7,
        "contract": "contracts/PaymentChannel.sol:PaymentChannel",
        "label": "expiration",
        "offset": 0,
        "slot": "2",
        "type": "t_uint256"
      }
    ],
    "types": {
      "t_address_payable": {
        "encoding": "inplace",
        "label": "address payable",
        "numberOfBytes": "20"
      },
      "t_uint256": {
        "encoding": "inplace",
        "label": "uint256",
        "numberOfBytes": "32"
      }
    }
  }
}